:100000000C940B020C943C020C943C020C943C02A9
:100010000C943C020C943C020C943C020C943C0268
:100020000C943C020C943C020C943C020C943C0258
:100030000C943C020C943C020C943C020C943C0248
:100040000C943C020C943C020C943C020C943C0238
:100050000C943C020C943C020C943C020C94581DF1
:100060000C943C020C94CC1D0C94A21D0C943C02EC
:100070000C943C020C943C020C943C020C943C0208
:100080000C943C020C943C020C943C020C943C02F8
:100090000C943C020C943C020C943C020C94021E06
:1000A0000C943C020C943C020C943C020C943C02D8
:1000B0000C943C020C943C020C943C020C943C02C8
:1000C0000C943C020C943C020C943C020C943C02B8
:1000D0000C943C020C943C020C943C020C943C02A8
:1000E0000C943C020C94192B0C943C300C94F806A4
:1000F0000C9425070C94FD1C0C9431040C94531B98
:100100000C94CF060C94FF020C945C160C94E82817
:100110000C94CA030C940B300C9422040C94852A82
:100120000C9413030C942B030C94E40F0C94CB034A
:100130000C94CE170C94C0160C9429300C94FC022D
:100140000C942D1C0C94F42A0C94F4020C940903C6
:100150000C941A300C94F3130C94082A0C94E81B9A
:100160000C94B2190C94F8020C9406300C941703FA
:100170000C94D12A0C940E1C0C9453040C94DD2F77
:100180000C94F32F0C9445040C94D9020C940503A1
:100190000C94F0020C94AA2A0C94EE160C94F3041E
:1001A0000C9421030C94D7210C9454070C941F3009
:1001B0000C94DC120C941C130C949B1B0C94DE0608
:1001C0000C947D130C94602A0C94F0140C947E14FF
:1001D0000C941D030C942F030C948B040C94871522
:1001E0000C94EE150C94F1060C94DE020C94AC12F7
:1001F0000C94AD330C9425030C94CE060C940F0391
:100200000C94641C0C9419150C94F5030000200048
:100210002300260029002C002F00320000010000DE
:100220000301060109014E6F20524320496E70758B
:100230007420446574656374656421007706B405B1
:10024000A5054404C2042003FC06EE036205200356
:100250003407AE05820409058703A5034807340562
:100260006B081D06A006CB053804B0047907A3046B
:10027000310567045B08FE04700677065D048A0595
:10028000FB07CE063A07990640069204B004200305
:1002900019073C04C80575032908B4059F05EB043C
:1002A0008D0460032C069D06524320436F6E7472CA
:1002B0006F6C20456E61626C656400204850205070
:1002C0006F736974696F6E696E6720456E61626CE9
:1002D0006564005072652D536574004465627567EE
:1002E00067696E672044697361626C6564000A46E1
:1002F0006C7468794850732C20536B657463682064
:1003000056657273696F6E20312E00000021002443
:100310000027002A002D00300033000101000004F6
:100320000107010A0100002200250028002B002EF1
:10033000003100340002010000050108010B010535
:10034000050505070508080808020202020A0A084E
:100350000804040404010101010101010103030374
:100360000303030303040707070C0C0C0C0C0C0C11
:100370000C0202020206060606060606060B0B0B18
:100380000B0B0B0B0B010210202008081020401053
:100390002040800201020108040201010204081049
:1003A0002040808040201008040201800402018067
:1003B0004020100804020108040201010204081090
:1003C000204080010204081020408000000A0B0237
:1003D000090C0D0E080703040100000000000000D6
:1003E000000000000000000000000000000000000D
:1003F00000000000000000121110000000000000CA
:1004000000000000000000000000000000000000EC
:100410000000D721AD3311241FBECFEFD1E2DEBFE4
:10042000CDBF00E00CBF17E0A0E0B2E0E6EAFAE7DB
:1004300000E00BBF02C007900D92A439B107D9F7B5
:100440002BE0A4E9B7E001C01D92AC31B207E1F79F
:1004500012E0CAE0D2E000E006C021970109802F37
:10046000FE010E949836C930D10780E00807A9F73D
:100470000E94BB220C94413D0C9400000F931F93EB
:10048000CF93DF93362F96E0899FF0011124062F3A
:1004900010E0BF0177274FEF469FC001479F900DA7
:1004A0001124CFEFD0E0BE010E947036CE01861B32
:1004B000970BBC01609FC001619F900D709F900DD4
:1004C0001124BE010E947036262FCF018095909591
:1004D000849FC0011124BE010E947036AE01461BEC
:1004E000570B409FC001419F900D509F900D1124CC
:1004F000BE010E947036EF2FFF2790E0732F862FEA
:10050000E230F105B1F048F4309781F0922F319745
:1005100079F0932F70E0822F0CC0E330F10579F071
:10052000962F70E03497A9F7832F03C0932F762F6F
:1005300080E0692FDF91CF911F910F91089590E096
:10054000722FF2CFDC01ED91FC910190F081E02D52
:100550001994282F30E0F901E553FC4F9491F901EB
:10056000EB57FC4F4491215C3C4FF901249122232D
:1005700009F435C0992311F191509231F8F4E92F23
:10058000F0E08827E953FD4F8F4F0C949836F8021E
:10059000FC02D902F002F402DE02FF0205030903A5
:1005A0000F03130317031D032103DE0225032B038F
:1005B0002F03809180008F7780938000E22FF0E0FE
:1005C000EE0FFF1FEB5DFC4FA591B4918FB7F89430
:1005D000EC91611148C040954E234C938FBF089514
:1005E000809180008F7DE8CF80918000877FE4CF6D
:1005F00084B58F7784BDE2CF84B58F7DFBCF8091AA
:10060000B0008F778093B000D9CF8091B0008F7DFC
:10061000F9CF809190008F7780939000CFCF809119
:1006200090008F7DF9CF80919000877FF5CF8091EA
:10063000A0008F778093A000C1CF8091A0008F7D14
:10064000F9CF8091A000877FF5CF809120018F772F
:1006500080932001B3CF809120018F7DF9CF8091CD
:100660002001877FF5CF4E2BB8CFCF93DF9390E05B
:10067000FC01EB57FC4F2491815C9C4FFC01849161
:100680008823D1F090E0880F991FFC01E55FFC4FB3
:10069000A591B491FC01EB5DFC4FC591D491611122
:1006A0000EC09FB7F8948C91E22FE0958E238C9327
:1006B0002881E223E8839FBFDF91CF9108958FB710
:1006C000F894EC91E22BEC938FBFF6CF3FB7F89400
:1006D0008091A5089091A608A091A708B091A808BC
:1006E00026B5A89B05C02F3F19F00196A11DB11D8D
:1006F0003FBFBA2FA92F982F8827BC01CD01620FC9
:10070000711D811D911D42E0660F771F881F991F83
:100710004A95D1F708958F929F92AF92BF92CF9250
:10072000DF92EF92FF924B015C010E9466036B0126
:100730007C010E9466036C197D098E099F09683E41
:10074000734081059105A8F321E0821A9108A10860
:10075000B10888EEC80E83E0D81EE11CF11C81149C
:100760009104A104B10429F7FF90EF90DF90CF909E
:10077000BF90AF909F908F9008952FB7F89460919D
:10078000A1087091A2088091A3089091A4082FBF9E
:10079000089508950895CF93DF93EC01E091F00759
:1007A000F091F1073097F1F09091AA088091A90893
:1007B0009817C0F090E0292F30E02617370754F43F
:1007C000DE01A20FB31F4C912555374FD9014C9331
:1007D0009F5FF1CF1092AA086093A908CB01DF9127
:1007E000CF911994DF91CF910895AF92BF92CF929C
:1007F000DF92EF92FF920F931F93CF93DF936C01E1
:100800007B018B01040F151FEB015E01AE18BF08C1
:10081000C017D10759F06991D601ED91FC91019073
:10082000F081E02DC6011995892B79F7C501DF917B
:10083000CF911F910F91FF90EF90DF90CF90BF90DD
:10084000AF900895FC01538D448D252F30E0842F07
:1008500090E0821B930B541710F0CF9608950197E8
:100860000895FC01918D828D981761F0A28DAE0FD5
:10087000BF2FB11D5D968C91928D9F5F9F73928F5C
:1008800090E008958FEF9FEF0895FC01918D828D88
:10089000981731F0828DE80FF11D858D90E0089555
:1008A0008FEF9FEF0895FC01918D228D892F90E0AD
:1008B000805C9F4F821B91098F73992708958BE16C
:1008C00099E00E94530421E0892B09F420E0822F53
:1008D0000895FC01A48DA80FB92FB11DA35ABF4FD5
:1008E0002C91848D90E001968F739927848FA6892F
:1008F000B7892C93A089B1898C91837080648C9383
:10090000938D848D981306C00288F389E02D808131
:100910008F7D80830895EF92FF920F931F93CF9363
:10092000DF93EC0181E0888F9B8D8C8D98131AC02A
:10093000E889F989808185FF15C09FB7F894EE8911
:10094000FF896083E889F98980818370806480836E
:100950009FBF81E090E0DF91CF911F910F91FF90B9
:10096000EF900895F62E0B8D10E00F5F1F4F0F7361
:100970001127E02E8C8D8E110CC00FB607FCFACF1C
:10098000E889F989808185FFF5CFCE010E9469044D
:10099000F1CFEB8DEC0FFD2FF11DE35AFF4FF082ED
:1009A0009FB7F8940B8FEA89FB8980818062CFCF53
:1009B0000F931F93CF93DF938C01D0E0C0E0F80139
:1009C000EC0FFD1F6491662341F08BE199E00E94DA
:1009D0008B04892B11F02196F2CFCE01DF91CF91BC
:1009E0001F910F910895CF93DF93EC01888D882399
:1009F000B9F0AA89BB89E889F9898C9185FD03C082
:100A0000808186FD0DC00FB607FCF7CF8C9185FF66
:100A1000F2CF808185FFEDCFCE010E946904E9CF3E
:100A2000DF91CF9108952091C907260F3327331FF7
:100A300021323105ECF42091F108FC0190E080E0D6
:100A4000243069F082E00895A091C9072191AC019A
:100A50004755584FA40FB52FB11D2C9301968617FB
:100A600098F38091C907680F6093C90780E00895E3
:100A700081E008951092F10881E08093F0081092CF
:100A8000CB0861E084E10E94A90261E085E10E9457
:100A9000A902E9EBF0E080818E7F808380818D7FE9
:100AA000808388E48093B80085E48093BC00089537
:100AB000CF93DF9391E09093A8078823B9F0C0917A
:100AC000B800D091BA008091BC008A7B8093BC00B2
:100AD00060E084E10E94A90260E085E10E94A90231
:100AE0000E943A05D093BA00C093B800DF91CF912D
:100AF00008958F929F92AF92BF92CF92DF92EF9222
:100B0000FF920F931F93CF93DF93D0911A09D132A5
:100B100008F0D7C0182FC09119090E9466036B0115
:100B20007C018091F10881116BC082E08093F10813
:100B30001093F0088FEF8093EF081092EE08D09397
:100B4000ED08A9EFB8E0EDECF8E080E0D81391C033
:100B50001092CC088091CC08CC0FC82BC093CC0845
:100B60008091CB08813009F088C01092CB080E9498
:100B700066036B017C018091CC088093BB0080915F
:100B8000F3089091F408A091F508B091F608892B2C
:100B90008A2B8B2BA1F00E9466030091F308109121
:100BA000F4082091F5083091F6086C197D098E093A
:100BB0009F09061717072807390708F442C08091D4
:100BC000BC0083FDD8CF85EC8093BC000E946603F7
:100BD0006B017C018091F108823009F450C0809152
:100BE000EF088F3F09F46FC08091EF08803209F45D
:100BF0006CC08091EF08803309F469C084E026C09E
:100C00008091F3089091F408A091F508B091F6084E
:100C1000892B8A2B8B2B09F484CF0E94660380904A
:100C2000F3089090F408A090F508B090F6086C19BD
:100C30007D098E099F0986169706A806B90608F051
:100C400070CF8091F2080E94580585E01092F80854
:100C500010921A091092F708DF91CF911F910F910E
:100C6000FF90EF90DF90CF90BF90AF909F908F90CC
:100C700008959D9191938F5F69CF85EEA5CF809167
:100C8000F3089091F408A091F508B091F608892B2B
:100C90008A2B8B2B09F49ECF0E9466030091F308E8
:100CA0001091F4082091F5083091F6086C197D092F
:100CB0008E099F09061717072807390708F08ACFFA
:100CC000C0CF81E0C3CF80E0C1CF82E0BFCF83E05F
:100CD000BDCF0F931F93CF93DF93EC018A018981DE
:100CE0009A81288131E03093F708209319091092F6
:100CF000F80810921A0924E0629FB00111246A5F7B
:100D00007F4FDC01ED91FC910190F081E02D199570
:100D100070E060E089819A810E94A20270E060E048
:100D200089819A810E94A202B80189819A810E94D8
:100D3000A202612F70E089819A810E94A20281E063
:100D4000DF91CF911F910F910C9479051F93CF9351
:100D5000DF93EC01142F89819A81288131E030934F
:100D6000F708209319091092F80810921A09DC016B
:100D7000ED91FC910190F081E02D199589819A8186
:100D8000DC01ED91FC910190F081E02D612F19952E
:100D900081E0DF91CF911F910C9479050895E09146
:100DA000AA088091A908E81730F4F0E0E555F74F5C
:100DB000808190E008958FEF9FEF08959091AA08A9
:100DC0008091A9082FEF3FEF981748F4E92FF0E042
:100DD000E555F74F208130E09F5F9093AA08C90145
:100DE00008958091A9089091AA08891B990B0895EC
:100DF000CF92DF92EF92FF920F931F93CF93DF93E7
:100E00007C01CB018A012091F708222389F0EB01B4
:100E10006B01C40ED51ECC15DD0569F06991D701B3
:100E2000ED91FC910190F081E02DC7011995F3CF70
:100E3000642F0E941305C801DF91CF911F910F917C
:100E4000FF90EF90DF90CF900895CF93DF931F92A4
:100E5000CDB7DEB769832091F7082223F9F02091FE
:100E60001A09203258F021E030E0FC01338322835C
:100E700090E080E00F90DF91CF9108958091F80885
:100E8000E82FF0E0E750F74F998190838F5F8093D0
:100E9000F80880931A0981E090E0ECCF61E0CE0180
:100EA00001960E941305F7CF90E080E008950F931C
:100EB0001F93CF93DF93EC0121E0260F6885621723
:100EC00029F109851A859FEF960F70E060E059F0CF
:100ED000422F50E0542F442741505109692F70E0B0
:100EE000CA010E947036F8014C815D81CF01801BE0
:100EF000910B8417950748F43081369FC001379FC6
:100F0000900D112490833196EFCF2887DF91CF91F8
:100F10001F910F9108958F929F92AF92BF92CF929F
:100F2000DF92EF92FF921F93CF93DF93FC018281B8
:100F3000938168177907A8F54A01AA24BB24C82D14
:100F4000C32ED42EE52EFF241C2DD22F808588237E
:100F500061F0889E40011124C92D8C9D60011124EF
:100F60001D2D829FD0011124DB2FA685E184F28400
:100F70009385A91322C0CB01880F991F680F791F91
:100F80006E0D7F1DA385A60FB72FB11DCC93A48531
:100F9000A60FB72FB11D1C938585680F711DFB012E
:100FA000D083DF91CF911F91FF90EF90DF90CF9092
:100FB000BF90AF909F908F900895660F771F660F38
:100FC000771F6E0D7F1D252F332744275527882334
:100FD00049F090E0829F7001839FF00C929FF00C8B
:100FE00011242F2DA60FB72FB11D2C93CBCFCF924D
:100FF000DF92EF92FF920F931F93CF93DF9300D076
:1010000000D000D0CDB7DEB78C01DC0119968D91F0
:101010009C91892B09F473C00E946603F801C78470
:10102000D088E188F2886C157D058E059F0520F437
:101030006787708B818B928BF801C784D088E18899
:10104000F2886C197D098E099F096C327140810507
:10105000910510F3F894D80114968D919C911597F1
:101060009A8389831996ED91FC917F01BFEFEB1A6A
:10107000FB0A80818987F80190810388F489E02D3B
:10108000D80155968C91992309F448C09081982BEA
:1010900098879081809589238F838F818C8388E0C6
:1010A0008B8358856F8149853B812C8189819A8109
:1010B000D701508347FD252F3A952083262F39F0FD
:1010C000441F00C000006083000000C0F2CF38E081
:1010D0004D9160830000019761F7D8015496FC930D
:1010E000EE93539749873B832C839A838983789423
:1010F0000E946603F8016787708B818B928B29961B
:101100000FB6F894DEBF0FBECDBFDF91CF911F9118
:101110000F91FF90EF90DF90CF9008959081982BE2
:1011200098879081809589238F838F818E8388E033
:101130008D8358856F8149853D812E8189819A8172
:10114000D701508347FD252F00C000C0208300C079
:1011500000C000C000C000C060830000262F3A9588
:1011600041F0441F000000C000C000C000C000C02B
:10117000E8CF38E04D9100C0608300C0019709F7C7
:10118000D8015496FC93EE93539749873D832E8361
:10119000ACCF61E08DE00E94A9020E94BD03609384
:1011A000F2077093F3078093F4079093F50708957F
:1011B000CF92DF92EF92FF920F931F93CF93DF9323
:1011C00096E1899FE0011124C653D54F10E000E05D
:1011D00088E2869FF001879FF00D1124EE5EFA4FA2
:1011E000C080D180E280F380A7019601B801CE01D2
:1011F0000E948B070F5F1F4F07301105A9F7CE0123
:10120000DF91CF911F910F91FF90EF90DF90CF90E2
:101210000C94F7070F931F93CF93DF9396E1899F69
:10122000E0011124C653D54F10E000E020E030E08B
:10123000A901B801CE010E948B070F5F1F4F073035
:101240001105A1F7CE01DF91CF911F910F910C9461
:10125000F707282F30E0F901E450F84F1082F90128
:10126000E150F84F1082F901E25FF74F1082220F30
:10127000331FF901EA54FC4F2AE030E03183208328
:101280000C940A0960E08AE00E94A90281E0809340
:1012900015080E94BD036093110870931208809393
:1012A00013089093140808956F927F928F929F92E3
:1012B000AF92CF92DF92EF92FF920F931F93CF9353
:1012C000DF93CDB7DEB7D82EF62E4A01682E712CEB
:1012D00087E3D89EF0011124AF0142535C4FF9011E
:1012E00080819181A281FA0182839383A483058303
:1012F0008E2D90E0893C910514F088EC90E0FA0185
:10130000868387E3869D8001879D100D11240253FB
:101310001C4FF801C782A08689899A89AB89BC894C
:1013200081879287A387B4870E94BD03F8016587F0
:1013300076878787908B11A28FEF9FEF938F828F95
:10134000F9E0FF121BC097FC19C0F801108285E07C
:10135000869DF001879DF00D1124EB57FB4F808295
:10136000DF91CF911F910F91FF90EF90DF90CF9081
:10137000AF909F908F907F906F90089587E3869DA8
:10138000F001879DF00D1124E253FC4F81E0808332
:10139000F1829D89992361F09AEF9F0D923040F47C
:1013A00080A3148E158E168E178E8D2D0E942909FE
:1013B00085E0869DF001879DF00D1124EB57FB4FD2
:1013C00084E68F0D8083CCCF4F925F926F927F9295
:1013D000AF92BF92CF92DF92EF92FF920F931F9343
:1013E000CF93DF93A62E6A01B22EC82FD0E00E94C1
:1013F000BD032B013C0187E38C9FF0018D9FF00D15
:101400001124E253FC4F87A590A9A1A9B2A9A30179
:101410009201281B390B4A0B5B0BDA01C901843599
:101420009140A105B10508F47CC0A701B801473F70
:1014300089E058076105710520F046EF59E060E04A
:1014400070E04A3A51056105710520F44AEA50E01E
:1014500060E070E0E1E0AE1638F0F5E0FA1530F447
:1014600086EF8A0D863010F082E0A82E87E38C9FED
:10147000F0018D9FF00D11249F0122533C4FF90183
:10148000A2A2F60180819181A281F90183A394A394
:10149000A5A38B2D90E0893C910514F088EC90E099
:1014A000F90186A387E38C9FF0018D9FF00D112435
:1014B000E253FC4F43A754A765A776A747A250A6BF
:1014C00061A672A647A650AA61AA72AA81E081A36A
:1014D0008FEF9FEF938F828F85E08C9FF0018D9F20
:1014E000F00D1124EB57FB4F8081853620F0909151
:1014F000C90A9817A0F485E08C9FF0018D9FF00D2C
:101500001124EB57FB4F87E38C9FD0018D9FB00DCB
:101510001124A253BC4F11968C918C59808381E089
:1015200001C080E0DF91CF911F910F91FF90EF906C
:10153000DF90CF90BF90AF907F906F905F904F9073
:101540000895CF92DF92EF92FF920F931F93CF9364
:10155000DF936A017B0196E1899FE0011124C65364
:10156000D54F10E000E0A7019601B801CE010E941E
:101570008B070F5F1F4F07301105A9F7CE01DF91D1
:10158000CF911F910F91FF90EF90DF90CF900C942F
:10159000F7070F931F93CF93DF93EC01462F8881BA
:1015A000689FC0011124EFEFF0E0BF010E94703688
:1015B0008B0130E020E09801112700278981489FA6
:1015C000C0011124BF010E94703690E080E0982F86
:1015D000872F762F6627062B172B282B392B8A81EE
:1015E000489FC0011124BF010E94703690E080E046
:1015F000602B712B822B932BDF91CF911F910F9139
:1016000008954F925F926F927F928F929F92AF92C6
:10161000BF92CF92DF92EF92FF920F931F93CF93DF
:10162000DF93EC016A017B0120E030E040E85FE3FA
:10163000CB01B6010E94D63487FDD6C020E030EC45
:101640004AE555E4C701B6010E94143818163CF467
:10165000C12C30ECD32E3AE5E32E35E4F32E6B812A
:101660007C818D819E810E94DB344B015C0120E0F6
:1016700030E040E855E4C701B6010E943C359B01CB
:10168000AC01C501B4010E94143720E030E040E015
:101690005FE30E94A83620E030E040E85FE30E946C
:1016A000A7366B017C0120E030E040E450E40E946A
:1016B000D63487FDA0C020E030E04FE753E4C701F7
:1016C000B6010E941438181634F4C12CD12C9FE7AF
:1016D000E92E93E4F92EC701B6010E948D37F62E4C
:1016E00089819A81288131E03093F7082093190984
:1016F0001092F80810921A09DC01ED91FC9101900A
:10170000F081E02D60E0199581E00E947905188153
:101710000E9466034B015C018091F108811171C048
:1017200081E08093F1088093F0089FEF9093EF0899
:101730001092EE081092ED088093CC088091CC08AE
:10174000110F182B1093CC088091CB08813009F031
:10175000B9C01092CB080E9466034B015C018091D6
:10176000CC088093BB008091F3089091F408A0917D
:10177000F508B091F608892B8A2B8B2BA1F00E94DB
:1017800066030091F3081091F4082091F508309158
:10179000F608681979098A099B09061717072807A7
:1017A000390708F44FC08091BC0083FDD8CF85EC89
:1017B0008093BC000E9466034B015C018091F1089C
:1017C000813009F481C08091EE0881119FC0809121
:1017D000EE08EDECF8E0ABEAB8E090E09817B9F16C
:1017E00021912D939F5FFACFC12CD12C20E8E22EBE
:1017F0002FE3F22E34CFC12CD12C80E4E82EFE2C26
:101800006ACF8091F3089091F408A091F508B09107
:10181000F608892B8A2B8B2B09F47ECF0E94660356
:101820004090F3085090F4086090F5087090F60826
:10183000681979098A099B094616570668067906C8
:1018400008F06ACF8091F2080E94580580E010925B
:10185000AA088093A90889819A81DC01ED91FC9105
:101860000284F385E02D1995182F482F4F7640619B
:1018700060E0CE010E94A6064F2D6EEFCE010E94C1
:10188000A606412F60E0CE010E94A60665E070E04A
:1018900080E090E00E948B03412F406A60E0CE011F
:1018A000DF91CF911F910F91FF90EF90DF90CF903C
:1018B000BF90AF909F908F907F906F905F904F9070
:1018C0000C94A60685EE74CF8091F3089091F408ED
:1018D000A091F508B091F608892B8A2B8B2B09F47F
:1018E0006DCF0E9466030091F3081091F4082091D7
:1018F000F5083091F608681979098A099B090617D5
:1019000017072807390708F059CF9CCF81E061CF2E
:10191000CF93DF93EC011092AA081092A9081092BD
:10192000F80810921A090E943A058AEC93E0909305
:10193000EF078093EE078BEC93E09093ED07809395
:10194000EC0740E860E0CE010E94A6066AE070E085
:1019500080E090E00E948B0340E050E06AE774E48E
:10196000CE010E94010B80E498E7ADE7B1E08B83E4
:101970009C83AD83BE8340E050E060E772E4CE011B
:101980000E94010BC950DF4F81E08883DF91CF9126
:1019900008954F925F926F927F928F929F92AF9233
:1019A000BF92CF92DF92EF92FF920F931F93CF934C
:1019B000DF938031B8F549016A017B01A82EB12C73
:1019C0009FE0899FF0011124E253F64F04891589A5
:1019D0008091C50A811104C08EEC99E00E94880CA8
:1019E0000E94BD032B013C018FE08A9DE0018B9D8D
:1019F000D00D1124C253D64FC40CD51CE61CF71CC5
:101A0000CA86DB86EC86FD869B8A8A8A1D8B0C8BB8
:101A1000A80169858F8198850E9469064E865F8638
:101A2000688A798ADF91CF911F910F91FF90EF9093
:101A3000DF90CF90BF90AF909F908F907F906F90EE
:101A40005F904F9008958F929F92AF92BF92CF92E6
:101A5000DF92EF92FF92CF93DF93282F4A01C82F96
:101A6000D0E0862F90E039E0239F800D911D112456
:101A7000880F991F880F991FFC01E45CFD4FE590CA
:101A8000F490FC01E25CFD4FC590D4900E944209A5
:101A9000092C000CAA08BB08B70190E080E00E9466
:101AA000DB3428E03CEA40E950E40E9414370E940D
:101AB0008637CC0FDD1FCB51DB4F9B01B501A40155
:101AC00088810E94C90CB60190E080E00E94DB345E
:101AD00028E03CEA40E950E40E9414370E9486372F
:101AE0009B01B501A4018981DF91CF91FF90EF9017
:101AF000DF90CF90BF90AF909F908F900C94C90CC7
:101B00008F929F92AF92BF92EF92FF920F931F938B
:101B1000CF93DF93C82FD62F082F10E07801EE0C5B
:101B2000FF1CF701E158FB4F80819181000F111FCD
:101B3000000F111F97FF0BC0118210820E94BD037E
:101B4000F801E456F84F60837183828393830E9487
:101B5000BD030456184FF80180809180A280B380A5
:101B6000681979098A099B096039714081059105D5
:101B700058F1F701E158FB4FE080F1802FEFE21AB6
:101B8000F20AF182E0820E94BD03F8016083718352
:101B9000828393834AEF50E0E0FE11C063E0D130CE
:101BA00009F060E08C2FDF91CF911F910F91FF9092
:101BB000EF90BF90AF909F908F900C94230D66E0B4
:101BC000D13081F362E0EECFDF91CF911F910F9181
:101BD000FF90EF90BF90AF909F908F900895FC0181
:101BE00001900020E9F73197AF01481B590BBC0168
:101BF0008BE199E00C94F503CF93DF930E94D80416
:101C0000EC0188E097E00E94EF0D8C0F9D1FDF91A3
:101C1000CF910895FC0180819181009711F00C947F
:101C2000B53808954F925F926F927F928F929F92F4
:101C3000AF92BF92CF92DF92EF92FF920F931F93DA
:101C4000CF93DF93EC01188219821A821B821C82C7
:101C50001D821E821F8218868091A804882309F4A1
:101C600067C0E090A904F090AA04E114F10409F41B
:101C70005FC08091AB049091AC04A091AD04B09191
:101C8000AE048A019B01081B190B2A0B3B0BC901EF
:101C9000B8010E94DD344B015C01B70190E080E0A7
:101CA0000E94DB349B01AC01C501B4010E943C35AC
:101CB00020E030E64AE657E40E9414376B017C01CD
:101CC0000E94BC372B013C010E9486378090B004F3
:101CD0009090B104A090B204B090B304860E971E09
:101CE000A81EB91E88829982AA82BB82A301920192
:101CF000C701B6010E94A7366C837D838E839F83C4
:101D00008091AF04811101C084E0C82ED12CF12C48
:101D1000E12CC501B401A70196010E94FD356C0DAF
:101D20007D1D8E1D9F1DA70196010E94FD356887B0
:101D3000CE01DF91CF911F910F91FF90EF90DF9037
:101D4000CF90BF90AF909F908F907F906F905F905B
:101D50004F9008950F931F93CF93DF93EC018881E9
:101D60009981009759F02A813B812617370730F077
:101D700081E0DF91CF911F910F9108958B016F5FEB
:101D80007F4F0E943E39009759F0998388831B83C7
:101D90000A832C813D81232B59F7FC011082E8CF67
:101DA00080E0E7CF0F931F93CF93DF931F921F9293
:101DB000CDB7DEB789831A820091100B1091110BF9
:101DC0000F5F1F4FB8018CE09BE00E94AA0E882392
:101DD000A1F020910C0B30910D0B8091100B909184
:101DE000110BBE016F5F7F4F820F931F0E943A3A23
:101DF0001093110B0093100B81E00F900F90DF9167
:101E0000CF911F910F910895CF93C1E08BE199E09D
:101E10000E945304892BB9F08BE199E00E943104B0
:101E20008D3011F08A3029F4C0939F080E94C908B0
:101E3000EDCF2091100B3091110B20363105B4F706
:101E40000E94D20EF3CFCF9108950E945F048111BA
:101E50000E94040F80E090E0892B49F080E090E040
:101E6000892B29F00E94000081110E94000080E06F
:101E700090E0892B49F080E090E0892B29F00E94C6
:101E8000000081110E94000080E090E0892B49F061
:101E900080E090E0892B29F00E94000081110C94D1
:101EA00000000895EF92FF920F931F93CF93DF935B
:101EB000EC017B018A01BA010E94AA0E28813981B6
:101EC000811114C02115310519F0C9010E94B538DE
:101ED000198218821D821C821B821A82CE01DF9118
:101EE000CF911F910F91FF90EF9008951D830C8368
:101EF000B701C9010E943A3AF1CFFB0101900020DD
:101F0000E9F73197AF01461B570B0C94520FCF9254
:101F1000DF92EF92FF920F931F93CF93DF93EC0129
:101F20006B017A014617570720F48D2D6A01E62EC2
:101F3000F82E198218821B821A821D821C8250E0A0
:101F400040E06AE077E0CE010E94520F0091100B52
:101F50001091110BC016D10600F5E016F10608F439
:101F60008701E0910C0BF0910D0BE00FF11FF08059
:101F7000108260910C0B70910D0B6C0D7D1D611525
:101F80007105A9F0CE010E947D0F80910C0B9091FC
:101F90000D0B080F191FF801F082CE01DF91CF91D0
:101FA0001F910F91FF90EF90DF90CF90089588815F
:101FB0009981009711F00E94B538198218821D820C
:101FC0001C821B821A82E1CFCF93DF936AE077E015
:101FD0008CE09BE00E947D0FD0E0C0E09091A908CA
:101FE0008091AA08981759F088EB99E00E94DE06C4
:101FF000CC30D10514F40E94D20E2196EFCF81E0AF
:1020000080939F08DF91CF910C94C908CF92DF9203
:10201000EF92FF926B017C01C114D104E104F10441
:1020200041F00E941334A70196010E94FD356B0117
:102030007C01C701B601FF90EF90DF90CF9008952B
:10204000CF92DF92EF92FF92CF93C82F6AEF70E0AA
:1020500080E090E00E9406106B017C010E94420922
:1020600069E070E080E090E00E940610862FB701E2
:10207000A6014A565F4F6F4F7F4F682F8C2FCF912D
:10208000FF90EF90DF90CF900C94230D4F925F92D2
:102090006F927F928F929F92AF92BF92CF92DF9278
:1020A000EF92FF920F931F93CF93DF93082F5B0163
:1020B0000E94BD03C02FD0E07E01EE0CFF1CEE0C91
:1020C000FF1CF701EE5FF74F408051806280738004
:1020D000AB01BC014419550966097709CC0FDD1F16
:1020E000FE01E055FC4F80819181B0E0A0E08417B3
:1020F0009507A607B70708F046C086E1089F80014C
:1021000011240653154FD12CC12C8AE08A9D400121
:102110008B9D900C11246AE070E080E090E00E94BA
:102120000610680D791D660F771F660F771FFB017C
:10213000EE5EFA4F2081318142815381B601C801A0
:102140000E948B078FEFC81AD80A87E0C816D104FF
:1021500011F7C8010E94F7070E94BD03F701EE5F67
:10216000F74F608371838283938364E670E080E03D
:1021700090E00E940610C055DC4F6E5C7F4F8F4F81
:102180009F4F79836883DF91CF911F910F91FF90CB
:10219000EF90DF90CF90BF90AF909F908F907F9007
:1021A0006F905F904F9008958F929F92AF92BF92E1
:1021B000CF92DF92EF92FF92CF93DF93EC010E94D8
:1021C0000A09CC0FDD1FCC0FDD1FFE01E954F94FCA
:1021D00082819381B0E0A0E0C080D180F12CE12C1D
:1021E000C816D906EA06FB0664F4BC01CD016C19D9
:1021F0007D098E099F090E940610C60ED71EE81E93
:10220000F91E0E94BD034B015C01CD58DB4FA8EEC7
:10221000B3E0A70196010E941C36860E971EA81EE9
:10222000B91E88829982AA82BB82DF91CF91FF90EA
:10223000EF90DF90CF90BF90AF909F908F900895D8
:102240008F929F92AF92BF92CF92DF92EF92FF92C6
:10225000CF93DF9394E0899FE0011124FE01E752C0
:10226000FB4F82819381B0E0A0E0C080D180F12C4F
:10227000E12CC816D906EA06FB0664F4BC01CD01C0
:102280006C197D098E099F090E940610C60ED71E83
:10229000E81EF91E0E94BD034B015C01CE53DC4FCA
:1022A000A8EEB3E0A70196010E941C36860E971E89
:1022B000A81EB91E88829982AA82BB82DF91CF9123
:1022C000FF90EF90DF90CF90BF90AF909F908F9056
:1022D0000895282F30E0F901EE0FFF1FEE0FFF1FCA
:1022E000EC56FB4F9FEF908391834FEF5FEF53834B
:1022F00042832C543B4FF901908191110C94201191
:102300000895611137C090E0FC01EE0FFF1FEF5000
:10231000FB4F2081318137FD20C0FC01EE5DF74F7E
:10232000408141111AC045E0489FF001499FF00DDE
:102330001124EB57FB4F44E6408335E0389FF00112
:10234000399FF00D1124EB57FB4F21838FEF8283D0
:102350008FEF9FEF94838383089525E0289FF001FA
:10236000299FF00D1124EB57FB4F2FEF20832FEF08
:102370003FEFE3CF613011F40C9469110895EF92AF
:10238000FF920F931F93CF93DF93182FC62F609167
:102390003E080E948111C1116BC020913D08E12EC1
:1023A000F12C85E0189FE0011124CB57DB4F2883E7
:1023B0008091A2049091A30497FD43C0009709F077
:1023C00046C069E070E080E090E00E9406106983FA
:1023D0002091A0043091A10480913D0837FD3CC0BC
:1023E000833049F485E08E9DF0018F9DF00D11241E
:1023F000EB57FB4F22838091A4049091A504009792
:1024000051F025E02E9DF0012F9DF00D1124EB578A
:10241000FB4F948383830E94BD03F701EE0FFF1FE0
:10242000EE0FFF1FEF5CF74F60837183828393830E
:10243000812FDF91CF911F910F91FF90EF900C941E
:102440002909F701273029F4E251FB4F8081898364
:10245000BFCFE551FB4FFACF833069F685E08E9D03
:10246000F0018F9DF00D1124EB57FB4F8283C3CFFA
:10247000C13049F5C12FD0E08E01000F111F000FB0
:10248000111FF801EC56FB4F80913D08808380912D
:10249000A20481838091A4049091A504009711F077
:1024A000938382830E94BD03F801EB5DF74F608345
:1024B000718382839383CC0FDD1FC158DB4F8FEF75
:1024C0009FEF99838883DF91CF911F910F91FF90A8
:1024D000EF9008952F923F924F925F926F927F926A
:1024E0008F929F92AF92BF92CF92DF92EF92FF9224
:1024F0000F931F93CF93DF93CDB7DEB761970FB6DE
:10250000F894DEBF0FBECDBF682E862E5D834C8350
:10251000722E17012801A82EB12C0E94BD036B0159
:102520007C01EFEFE80DEF3008F038C5F0E08827C8
:10253000E356FD4E8F4F0C949836AC12CE17DC123A
:102540001C137D13F3137E14F014CE171915871581
:10255000EE155C16C016EE1687E38A9D80018B9DF2
:10256000100D112402531C4FD8015A968D919C9145
:10257000892B49F040E050E0BA01862D0E94A10A63
:10258000F801138E128E61960FB6F894DEBF0FBE5F
:10259000CDBFDF91CF911F910F91FF90EF90DF9012
:1025A000CF90BF90AF909F908F907F906F905F90F3
:1025B0004F903F902F90089587E38A9DF0018B9D67
:1025C000F00D1124E253FC4FA581B0E02EEE3DEF5B
:1025D0004FEF5FEF0E941C362FEF30E040E050E0FD
:1025E0000E94FD3549015A01FCEB8F0EF2E09F1E5F
:1025F000A11CB11CC701B6016219730984099509B0
:10260000A5019401220F331F441F551F0E942F362E
:10261000681579058A059B0540F4672D8C819D819D
:102620000E94C90AAB01BC0103C040E050E0BA01FE
:10263000862D0E94A10AA7CF87E38A9DF0018B9D7A
:10264000F00D1124E253FC4FA581B0E020E239EFF8
:102650004FEF5FEF0E941C362FEF30E040E050E07C
:102660000E94FD3549015A0180ED880E87E0981ED1
:10267000A11CB11CC701B60162197309840995092F
:10268000A50194010E942F369B01AC01D501C40124
:10269000B695A79597958795281739074A075B0739
:1026A00018F5AEEFB1E00E941C36A50194010E941E
:1026B0002F36022F132F9A010F3F110521053105E7
:1026C00029F020F00FEF10E020E030E0472D50E03F
:1026D000409FC001419F900D509F900D11246FEFBE
:1026E00070E00E9470369ACFD501C401821B930B13
:1026F000A40BB50B9C01AD01D4CFC218D308E408DC
:10270000F50887E38A9DF0018B9DF00D1124E253BB
:10271000FC4FA581B0E020EE3FEF4FEF5FEF0E944E
:102720001C362FEF30E040E050E00E94FD35285D80
:102730003F4F4F4F5F4FC701B6010E942F36822E89
:1027400096E1699E800111240653154FD12CC12CAE
:10275000F12CE12C87E0A82EB12CC601B5010E9416
:102760007036680D19821A821B82653508F5862F2E
:10277000880F860F8983862F880F880F681B61500A
:102780006A83672DCE0101960E94C90A9B01AC01A4
:10279000B701C8010E948B07BFEFEB1AFB0AD39465
:1027A000F7E0EF16F104C9F6C8010E94F707EBCE77
:1027B0006A3A70F46555862F880F880FA62FA81BDC
:1027C0008A2F81508983862F880F680F6B83D9CF1A
:1027D0006A5A862F880F860F8A83862F880F880F64
:1027E000681B6150F3CF87E38A9D80018B9D100D9C
:1027F000112402531C4FF801848D958DA68DB78D41
:1028000016012701281A390A4A0A5B0AA581B0E095
:102810002EE73FEF4FEF5FEF0E941C362FEF30E0C7
:1028200040E050E00E94FD3520563F4F4F4F5F4F34
:10283000221533054405550508F0A5CED8015C9650
:10284000CD92DD92ED92FC925F97B6E16B9EC00156
:102850001124FC01E653F54F7F0120E030E0A9018F
:1028600070E060E0CF010E948B07D80190968C91B8
:102870009097873018F081E090968C9387E38A9D3B
:10288000F0018B9DF00D1124E253FC4F80A18111CA
:1028900002C081E080A301E010E027E32A9DC0018F
:1028A0002B9D900D1124FC01E251FC4F6F01D601CC
:1028B0008C9120E030E0A9018017110639F4672DD2
:1028C0008C819D810E94C90A9B01AC01B801C7019E
:1028D0000E948B070F5F1F4F0730110541F7C7019B
:1028E0000E94F70787E38A9DF0018B9DF00D11246C
:1028F000E253FC4F80A18F5F80A345CE87E38A9D82
:1029000080018B9D100D112402531C4FF801848D02
:10291000958DA68DB78D16012701281A390A4A0A06
:102920005B0AA581B0E022E93FEF4FEF5FEF0E9425
:102930001C362FEF30E040E050E00E94FD352A5673
:102940003F4F4F4F5F4F221533054405550508F0A3
:102950001ACED8015C96CD92DD92ED92FC925F97F3
:10296000B6E16B9E800111240653154FF12CE12C2A
:10297000C72CD12CAA24AA94B12C64E070E080E08A
:1029800090E00E940610672B682B692B39F160EAF2
:1029900070E080E090E00E940610605A7F4F8F4FF9
:1029A0009F4FC69E9001C79E300DD69E300D1124BC
:1029B000C901B5010E9470368C819D810E94C90AAF
:1029C0009B01AC01B701C8010E948B07EFEFEE1A23
:1029D000FE0AF7E0EF16F10481F6E6CE60E0ECCFF8
:1029E00087E38A9D80018B9D100D112402531C4F9B
:1029F000D80159968C91789EC00111246FEF70E038
:102A00000E9470367B01F801828D938D861797079F
:102A100009F4B9CD8C819D810E94C90AAB01BC012A
:102A2000862D0E94A10AD8015B96FC92EE925A97DD
:102A3000AACDC701B601621973098409950927E374
:102A40002A9DF0012B9DF00D1124E253FC4F45818E
:102A50002FEF30E0241B3109032E000C440B550BE3
:102A60005695479537952795225E3F4F4F4F5F4FBD
:102A70000E942F36CA01B90126E030E040E050E064
:102A80000E942F361B01B6E16B9E80011124065374
:102A9000154F20E030E0A90170E060E0C8010E941D
:102AA0008B07F12CE12C5101E6E0AE0EB11CCC24D9
:102AB000CA94D12CD101AE19BF09B7FF03C0D5010B
:102AC000AE19BF0960E0A230B1054CF42FEF30E041
:102AD0000E94A03696958795779567956095769E26
:102AE000C0011124B6010E9470368C819D810E9424
:102AF000C90A9B01AC01FFEFEF1AFF0AB701C80139
:102B00000E948B0726E0E216F104A1F64DCEC21812
:102B1000D308E408F50836E1639E800111240653CA
:102B2000154F20E030E0A90170E060E0C8010E948C
:102B30008B07212C312C210127E32A9DC0012B9DDD
:102B4000900D1124DC01AD52BC4FBF83AE8373E006
:102B5000872E912CA12CB12CEE81FF8180812FEF4B
:102B600030E0281B3109032E000C440B550B569501
:102B7000479537952795225E3F4F4F4F5F4FC701CF
:102B8000B6010E942F36CA01B901620D731D841D62
:102B9000951DA50194010E942F3620E030E0A90187
:102BA000672B682B692B39F4672D8C819D810E94DE
:102BB000C90A9B01AC01B1016F5F7F4FC8010E9440
:102BC0008B07FFEF2F1A3F0A4F0A5F0A26E02216F3
:102BD00031044104510409F0BFCFE6CDD701C6014D
:102BE00082199309A409B5091C012D0196E1699E7A
:102BF000800111240653154F20E030E0A90170E058
:102C000060E0C8010E948B07F12CE12C27E32A9D8C
:102C1000C0012B9D900D1124DC01AD52BC4FBF8330
:102C2000AE83CC24CA94D12C2CE0822E912CA12CE2
:102C3000B12CEE81FF8180819601281B3109032E82
:102C4000000C440B550B5695479537952795225EFA
:102C50003F4F4F4F5F4FC201B1010E942F36CA0153
:102C6000B901A50194010E942F36663071058105D6
:102C7000910538F46E157F055CF420E030E0A90181
:102C80000EC08BE090E0861B970BE816F906ACF7B8
:102C9000672D8C819D810E94C90A9B01AC01FFEFC9
:102CA000EF1AFF0AB701C8010E948B0726E0E2165F
:102CB000F10409F0BECF78CDC218D308E408F508B6
:102CC00036E1639E800111240653154F20E030E069
:102CD000A90170E060E0C8010E948B07212C312C13
:102CE0002101912C812C27E32A9DC0012B9D900D61
:102CF0001124DC01AD52BC4FBD83AC83AA24AA943D
:102D0000B12CEC81FD8180819501281B3109032EB6
:102D1000000C440B550B5695479537952795225E29
:102D20003F4F4F4F5F4FC701B6010E942F36622EB3
:102D3000C201B10125E030E040E050E00E942F36B2
:102D4000672D862D820F0E943E02FFEF8F1A9F0A89
:102D5000272F30E050E040E0542F432F322F22271E
:102D6000462B282BB401C8010E948B0720E8220EB5
:102D7000311C411C511C36E08316910411F614CD10
:102D8000C701B601621973098409950927E32A9DD1
:102D9000F0012B9DF00D1124E253FC4F45812FEFE4
:102DA00030E0241B3109032E000C440B550B2E7F01
:102DB000245C3F4F4F4F5F4F0E942F36822F672D6D
:102DC0000E943E02962F472F50E070E060E0762F81
:102DD000652F542F4427692B482B2ACC86E1689E07
:102DE00080011124D801A653B54F1D0180E090E267
:102DF000A7E3BFEE8E839F83A887B98789EB99E706
:102E0000A7E3BEE98A879B87AC87BD8710E000E017
:102E100027E32A9DC0012B9D900D1124DC01AD52AA
:102E2000BC4FBF87AE87E72DF0E0F98BE88B4E8073
:102E30005F80688479848A859B85AC85BD854826BA
:102E400059266A267B26D301C20121E1B695A795B2
:102E5000979587952A95D1F784259525A625B72599
:102E6000AC01BD0135E0440F551F661F771F3A9531
:102E7000D1F72C013D014426552666267726AE85DE
:102E8000BF858C91AFEFB0E0A81BB10926E030E020
:102E90000E94A0364B015C01B0E98B0EB1E09B1E95
:102EA000A11CB11CC2019170880E991EA11CB11CFD
:102EB00043E0440C551C661C771C4A95D1F7C301AE
:102EC000B201687F877099276C0D7D1D8E1D9F1D37
:102ED000A50194010E942F369B01AC01240135010C
:102EE00076946794579447942415350546055705FD
:102EF00008F04BC0AFEFB0E00E941C36A301920176
:102F00000E942F3649015A019FEF89169104A104AE
:102F1000B10429F020F0812C912C54018A94A889C5
:102F2000B989A89DC001A99D900DB89D900D11244F
:102F30006FEF70E00E9470368C819D810E94C90AFB
:102F40009B01AC01B801C1010E948B070F5F1F4FAD
:102F50008A859B85AC85BD858F549648A84CB14623
:102F60008A879B87AC87BD878E819F81A885B9851D
:102F7000905EA94CB0418E839F83A887B9870730A4
:102F8000110509F054CFC10110CCD501C401821B39
:102F9000930BA40BB50B9C01AD01ACCFE72CF12C2E
:102FA00087E38A9D80018B9D100D112402531C4FD5
:102FB000D8015A968D919C918E159F0509F4E3CA0C
:102FC000672D8C819D810E94C90AAB01BC01862DB1
:102FD0000E94A10AF801F38EE28ED5CA85ED809396
:102FE000BC008091F3089091F408A091F508B0918D
:102FF000F6080796A11DB11D23E0B695A7959795F4
:1030000087952A95D1F72091BC0024FD03C010922A
:10301000F10808954091F3085091F4086091F50883
:103020007091F608452B462B472B69F30097A105B5
:10303000B10541F02AE22A95F1F700C00197A109F4
:10304000B109E1CF8091F2080C945805EF92FF92FC
:103050000F931F93CF93DF93EC017B0189859A85B2
:103060000E94B5389E858B85981701F184E090E029
:103070008E9D80018F9D100D9E9D100D11241D832E
:103080000C83C8010E9419389A878987009789F0B4
:10309000A80170E060E00E94283AFB82EA82DF919A
:1030A000CF911F910F91FF90EF90089583E090E0F2
:1030B000DFCF1D821C821B821A82F1CF2F923F929A
:1030C0004F925F926F927F928F929F92AF92BF9238
:1030D000CF92DF92EF92FF920F931F93CF93DF93E4
:1030E000C82F762EEEE8F3E06491E8E4F3E0E49193
:1030F000F0E0EE0FFF1FE45FFD4F8591949100E437
:1031000012E42FE030E0462F0E94261F6B017C0165
:10311000C114D104E104F10439F08FEFC81AD80AC0
:10312000E80AF80A8FE0F822D0929B07C0929A072B
:103130001C141D040CF0C7C00E9442092C2E312C17
:1031400084E2C89FE00111240D2C000CEE08FF085A
:1031500082EEC81A84E0D80AE108F10881E0FE0195
:10316000781283C0EC5AFD4F25913491FE01E85B43
:10317000FD4F85909490B12CA12C50E040E028198F
:1031800039094A095B09C701B6010E94603634EF6C
:10319000432E55245394612C712CA30192010E945B
:1031A000FD3589019A01080D191D2A1D3B1DFE01DF
:1031B000EA5AFD4F25913491FE01E65BFD4F859063
:1031C0009490B12CA12C50E040E0281939094A090B
:1031D0005B09C701B6010E946036A30192010E94FB
:1031E000FD35280D391D4A1D5B1D7901B80190E0A0
:1031F00080E00E94DB3428E03CEA40E950E40E9491
:1032000014370E948637E101CC0FDD1FCB51DB4F15
:103210009B0140E050E0BA0188810E94C90CB701CF
:1032200090E080E00E94DB3428E03CEA40E950E492
:103230000E9414370E9486379B0140E050E0BA019B
:103240008981DF91CF911F910F91FF90EF90DF90D7
:10325000CF90BF90AF909F908F907F906F905F9036
:103260004F903F902F900C94C90CEC5BFD4F259133
:103270003491FE01E45CFD4F85909490B12CA12C1B
:1032800050E040E0281939094A095B09C701B60135
:103290000E94603624EF422E55245394612C712CE9
:1032A000A30192010E94FD3589019A01080D191DA3
:1032B0002A1D3B1DFE01EA5BFD4F25913491FE0165
:1032C000E25CFD4F7CCF86E292E0DF91CF911F91CF
:1032D0000F91FF90EF90DF90CF90BF90AF909F90B5
:1032E0008F907F906F905F904F903F902F900C94B5
:1032F000FC0D2F923F924F925F926F927F928F922E
:103300009F92AF92BF92CF92DF92EF92FF920F9374
:103310001F93CF93DF93CDB7DEB7EE970FB6F89438
:10332000DEBF0FBECDBFD82E4B01082F10E00E948C
:10333000BD03AB01BC01D4011396EC911397E1508E
:10334000E83008F045C1F0E08827E655F64E8F4F8B
:103350000C949836B219531B9B1BE81B0E1C2D1C9A
:10336000641CFD1CF40184819789992309F4DAC057
:1033700092E1E4ECF4E0DE01119601900D929A9551
:10338000E1F7D40158964D905D906D907C905B97DD
:1033900042E0882311F015964C91F401A184B28487
:1033A000C384A886B986CA869485992309F45BC02C
:1033B000F584D4015696BC91BDAFF401F58DFEAFF6
:1033C00022242A94322C882321F0D40116962D90A1
:1033D0003C90F40180A962E1E12C8823D1F0E1A8BE
:1033E00082A9811143C088859985AA858F87988B8A
:1033F000A98BD401D6968C91D697882349F0D7967D
:103400008D919C916AE070E00E947036611101C05C
:1034100062E19801220F331F3CAF2BAFF901EA5054
:10342000F84F2081318150E9D59ED0011124CD0182
:1034300080509E4F9AAF89AFD12CC12CC216D306B3
:103440000CF011C3DC014296FC01729780809180E0
:10345000A280B38084149504A604B7045CF4AFEF93
:10346000CA1ADA0AEBCFF0E8FF2EA3CF83A994A9FA
:10347000A5A9BCCF84149504A604B704A1F549827C
:103480005A826B827C824D833F822E82FB864DADB9
:103490004C874EAD4D87EE866A8B82E1FE013196F8
:1034A00001900D928A95E1F7EBADFCADEA50F84F33
:1034B00031832083EBADFCADE454FC4F8FEF9FEFE5
:1034C0009183808387E3809FF001819FF00D112419
:1034D000E253FC4F80E090E0A0E0B0E883AB94AB17
:1034E000A5ABB6AB75C028303105F4F652E1529F5A
:1034F000C001539F900D1124A9ADBAAD8A0F9B1F37
:1035000049014297C814D9040CF0B1C252E1FC0140
:10351000DC01529601900D925A95E1F7B1E08B1AB9
:103520009108EFCF882309F46CC015966C91F401D3
:103530009085992309F46FC02185328543852983BD
:103540003A834B83D4011C969C911C97992309F4D0
:103550006EC01D969C91F4012389222309F471C049
:10356000E488D40155962C915597222309F473C011
:103570005696CC90F401248D222309F476C0A58CB4
:10358000D4011E962C911E97222309F478C01F9611
:103590002C911F9750963C91509751965C91519762
:1035A00052964C91D4011696ED91FC918F934F93C6
:1035B0005F933F932F93092F9E012F5F3F4FAF01E2
:1035C0008D2D0E9454090F900F900F900F900F9027
:1035D000EE960FB6F894DEBF0FBECDBFDF91CF9150
:1035E0001F910F91FF90EF90DF90CF90BF90AF9021
:1035F0009F908F907F906F905F904F903F902F9013
:10360000089597E3909FF001919FF00D1124E253EC
:10361000FC4F61818CCF97E3909FF001919FF00D5B
:103620001124E253FC4F22813381448188CF97E3F8
:10363000909FF001919FF00D1124E253FC4F958172
:103640008ACF27E3209FF001219FF00D1124E25340
:10365000FC4FE68086CF27E3209FF001219FF00DED
:103660001124E253FC4FC78085CF27E3209FF00150
:10367000219FF00D1124E253FC4FA08481CF27E35A
:10368000209FF001219FF00D1124E253FC4FDF0138
:103690001996218511963C91119712965C9112977B
:1036A00013964C917FCFF4018481882399F1658131
:1036B000613080F1663020F086EF860F863050F55D
:1036C000D4011E968C911E97882331F11F968D91FF
:1036D0009D910D90BC91A02DF4012389222309F125
:1036E0002489F40130856090D6047090D7048090CE
:1036F000D804332319F061847284838469827A82C6
:103700008B827C018D01AE014F5F5F4F8D2D0E943A
:10371000E4095ECF62E0D4CF88E790E0A0E0B0E0BB
:10372000DBCF27E3209FF001219FF00D1124E2530E
:10373000FC4F2681D6CF5E968C915E97882339F018
:103740005F968D919C919093AA048093A904F401B3
:1037500086A1882331F087A1811101C084E0809384
:10376000AF04D40191968C919197882369F1929638
:103770008D919D910D90BC91A02D840F951FA61F3A
:10378000B71F8093AB049093AC04A093AD04B093A7
:10379000AE04F40180A5882361F081A592A5A3A5BC
:1037A000B4A58093B0049093B104A093B204B093F5
:1037B000B30481E02091A9043091AA04232B09F4D9
:1037C00080E08093A8047ECE80E090E0DC01D5CF3D
:1037D00053968C915397882389F054966C9170E09E
:1037E000693C710514F068EC70E0F6E1DF9EC00101
:1037F00011248653954F0E945707EACEF40185A500
:10380000882311F066A5EBCF87E3809FF001819FAD
:10381000F00D1124E253FC4F6681E1CF9D968C910F
:103820009D97882381F09E968C9197E3909FF0015D
:10383000919FF00D1124E253FC4F818F8FEF9FEF8A
:10384000938F828FC5CE87E3809FF001819FF00D1B
:103850001124E253FC4F818DE8CF27E3209FC00164
:10386000219F900D1124FC01E253FC4F7F01108237
:1038700011A2C801880F991FFC01EA50F84F11826C
:10388000108284549C4FAA24AA94BA2CDC01AD92D5
:10389000BC9280E090E0A0E0B0E8F70183AB94AB8D
:1038A000A5ABB6AB8D2D0E940A0985E0809FF00183
:1038B000819FF00D1124EB57FB4F1082D7015B96CF
:1038C000BC92AE925A9784CEF40187A5833709F053
:1038D00047C098012956384FD9014C91C8018C54E2
:1038E0009B4FD801AE5DB74F41110EC0FC01408126
:1038F000F801EA53F54F40834C91F801EC56F84F2C
:10390000408341E0F9014083F801E954FB4F108204
:10391000FC01108281E08C9387E3809FF001819FFE
:10392000F00D1124E253FC4F108211A2000F111F61
:10393000D801AA50B84F1D921C9204541C4F8FEF0F
:103940009FEFD8018D939C9380E090E0A0E0B0E8D9
:1039500083AB94ABA5ABB6AB8D2D0E940A0938CED4
:10396000893609F035CEF801EB5EF44F8081F8011D
:10397000E954FB4F8083D801A956B84F8C91882316
:1039800089F0F801EA53F54F8081F801EC54FB4FC0
:103990008083F801EC56F84F8081F801EE5DF74F17
:1039A00080831C9287E3809FF001819FF00D11249A
:1039B000E253FC4F108211A2C801880F991FDC014D
:1039C000AA50B84F1D921C9284549C4F2FEF3FEF8A
:1039D000DC012D933C9380E090E0A0E0B0E883AB65
:1039E00094ABA5ABB6AB85E0809FF001819FF00D55
:1039F0001124EB57FB4F1082EBCDF40182818A3208
:103A000009F4E6CD2091A9043091AA0487E3809FB0
:103A1000F001819FF00D1124E253FC4F918186E467
:103A2000DD2021F0F1E082E5DF1284E53F932F9362
:103A30001F929F931F928F9387EE96E09F938F9391
:103A40001F9288E38F938E010F5F1F4F1F930F9379
:103A50000E945E3AC8010E94EF0D0FB6F894DEBFD7
:103A60000FBECDBFB5CD283031050CF01DCD49823C
:103A70005A826B827C824D833F822E82FB864DADC3
:103A80004C874EAD4D87EE866A8B92E19C9DD001AE
:103A90009D9DB00D112449AD5AADA40FB51FFE0177
:103AA000319601900D929A95E1F72F5F3F4FFCCC34
:103AB0001F920F920FB60F9211242F933F938F9363
:103AC0009F93AF93BF938091A1089091A208A0917A
:103AD000A308B091A4083091A00823E0230F2D374C
:103AE00058F50196A11DB11D2093A0088093A1084F
:103AF0009093A208A093A308B093A4088091A5086E
:103B00009091A608A091A708B091A8080196A11DC0
:103B1000B11D8093A5089093A608A093A708B09321
:103B2000A808BF91AF919F918F913F912F910F90D6
:103B30000FBE0F901F90189526E8230F0296A11D27
:103B4000B11DD2CF1F920F920FB60F9211240BB658
:103B50000F922F933F934F935F936F937F938F9326
:103B60009F93AF93BF93EF93FF938BE199E00E94F4
:103B70006904FF91EF91BF91AF919F918F917F91D8
:103B80006F915F914F913F912F910F900BBE0F90CE
:103B90000FBE0F901F9018951F920F920FB60F92A5
:103BA00011240BB60F922F938F939F93EF93FF9354
:103BB000E0912B09F0912C098081E0913109F0917D
:103BC000320982FD1DC09081809134098F5F8F730F
:103BD00020913509821741F0E0913409F0E0E55E6B
:103BE000F64F958F80933409FF91EF919F918F91BC
:103BF0002F910F900BBE0F900FBE0F901F90189536
:103C00008081F2CF1F920F920FB60F9211240BB644
:103C10000F922F933F934F935F936F937F938F9365
:103C20009F93AF93BF93EF93FF938091B900887FE9
:103C3000803609F44DC008F040C0883209F4A9C0AC
:103C400028F5803109F49DC0C8F4882309F4FBC02D
:103C5000883009F496C0FF91EF91BF91AF919F9189
:103C60008F917F916F915F914F913F912F910F9025
:103C70000BBE0F900FBE0F901F901895883109F45E
:103C800088C0803241F78093EF0814C0803409F473
:103C90009DC040F48033B9F38833E9F68093EF0890
:103CA00085ECB0C0803509F485C0883509F496C02C
:103CB000883489F60E94EE17CECF883909F48CC07B
:103CC00038F5883729F050F4883611F0803719F626
:103CD00083E08093F1081092EB0757C0883809F40D
:103CE0007BC0803919F0803809F0B5CF8091EB079F
:103CF000803208F071C0E091EB0781E08E0F809375
:103D0000EB078091BB00F0E0E553F84F80833DC0A6
:103D1000803B39F0E0F4803A09F479C0883A09F040
:103D20009ACF84E08093F1081092CA071092C907D5
:103D3000E091EE07F091EF0719958091C907811185
:103D40000FC081E08093C9071092A90709C0803C89
:103D500009F4A6CF883C09F4A3CF883B09F07BCFB8
:103D6000E091CA0781E08E0F8093CA07F0E0E75523
:103D7000F84F80818093BB009091CA078091C9075A
:103D800029C08091CC088093BB0085EC8093BC0057
:103D900062CF9091EE088091ED08981758F5E09168
:103DA000EE0881E08E0F8093EE08F0E0E353F74FCA
:103DB0008081E9CFE091EE0881E08E0F8093EE08DC
:103DC0008091BB00F0E0E353F74F80839091EE08C1
:103DD0008091ED089817C8F285E8D8CFE091EE08F9
:103DE00081E08E0F8093EE088091BB00F0E0E353FA
:103DF000F74F80838091F00881115CCF81E0809340
:103E0000CB0884EA8093BC001092F10824CF85ECA3
:103E10008093BC001092F1088091EB07803230F45F
:103E2000E091EB07F0E0E553F84F10826091EB076B
:103E300070E0E091EC07F091ED078BEC97E01995BD
:103E40001092EB0708CF1092EF0834CFCF92DF9299
:103E5000EF92FF920F931F93E82FF92F05C00150A7
:103E600011092109310961F1908196239417B9F361
:103E700005C0015011092109310911F190819623E2
:103E80009413F7CFC12CD12CE12CF12C0AC08FEF69
:103E9000C81AD80AE80AF80A0C151D052E053F05B0
:103EA00079F080818623841791F36C2D7D2D8E2DE2
:103EB0009F2D1F910F91FF90EF90DF90CF9008956D
:103EC00060E070E080E090E01F910F91FF90EF9034
:103ED000DF90CF900895CF93DF93CDB7DEB72C97C7
:103EE0000FB6F894DEBF0FBECDBFFB01BE016F5F02
:103EF0007F4FAC014A5F5F4FDC012D91CD0130ED6A
:103F0000320F3A3040F5022E000C330B20533109AA
:103F1000DB012D933D93BD018417950769F78981D6
:103F20008295807F9B81890F80838D818295807FA0
:103F30009F81890F818389858295807F9B85890FE9
:103F4000828381E02C960FB6F894DEBF0FBECDBF02
:103F5000DF91CF9108953FE9320F363030F4022ED1
:103F6000000C330B27553109D3CF3FEB320F3630DE
:103F700030F4022E000C330B27533109C9CF80E0F7
:103F8000E1CFCF93DF93FC01A081B1818C9180328E
:103F900021F097EF980F953020F41196B183A0830C
:103FA000F3CF91E08D3209F090E0EB0198838D32F0
:103FB00019F08C918B3219F41196B183A08360E0D3
:103FC00070E0CB01A081B1812C9120532A3030F5D3
:103FD0009D012F5F3F4F31832083CC916A39D9E90E
:103FE0007D078D07D9E19D07A8F4C053693929E9F8
:103FF0007207820729E1920711F4C63058F4AAE04B
:10400000B0E09B01AC010E941C366C0F711D811D3C
:10401000911DD8CF6FEF7FEFCB01D4CFDF91CF9140
:104020000895CF93DF9300D0CDB7DEB79B838A830B
:10403000BE016F5F7F4FCE0102960E94C11F298192
:1040400097FF0BC06FEF7FEF8FEF9FE7222371F099
:1040500060E070E080E090E809C0222339F090959C
:104060008095709561957F4F8F4F9F4F0F900F9068
:104070000F90DF91CF910895CF93DF9300D0CDB70C
:10408000DEB79B838A83BE016F5F7F4FCE010296AE
:104090000E94C11F2981222339F090958095709547
:1040A00061957F4F8F4F9F4F0F900F900F90DF9133
:1040B000CF910895DC01ED91FC91119740815181E0
:1040C000FB0101900020E9F73197E61BF70B4E1733
:1040D0005F0751F41296ED91FC91808191810E94CD
:1040E000413A21E0892B09F020E0822F0895CF93F7
:1040F000DF93FB0101900020E9F73197E61BF70BF6
:10410000EC01A881B9814D915C914E175F0749F48C
:10411000EA81FB81808191810E94413A21E0892BD3
:1041200009F020E0822FDF91CF9108952F923F92E6
:104130004F925F926F927F928F929F92AF92BF92B7
:10414000CF92DF92EF92FF920F931F93CF93DF9363
:1041500000D000D000D01F92CDB7DEB79E838D83F4
:1041600078876F831A018FEF9FEFFA019183808325
:10417000CE0107969A83898302979C838B836BE099
:1041800077E004970E9477208111F3C06FE077E019
:10419000CE0101960E9477208111EDC065E177E0A4
:1041A000CE0101960E9477208111E7C06BE177E094
:1041B000CE0101960E9477208111E1C061E277E093
:1041C000CE0101960E9477208111DBC069E277E081
:1041D000CE0101960E9477208111D5C06EE277E072
:1041E000CE0101960E9477208111CFC066E377E06F
:1041F000CE0101960E9477208111C9C06CE377E05F
:10420000CE0101960E9477208111C3C062E477E05D
:10421000CE0101960E9477208111BDC068E477E04D
:10422000CE0101960E9477208111B7C06DE477E03E
:10423000CE0101960E9477208111B1C066E577E03A
:10424000CE0101960E9477208111ABC061E677E034
:10425000CE0101960E9477208111A5C0CF80D8841D
:10426000F8E0CF16D10408F4A0C0ED80FE8047E04E
:1042700050E069E677E0C7010E94413A892B09F0D6
:1042800094C0F70187818D3209F44AC0412C512C2A
:104290003201439407E010E08B3211F408E010E0A3
:1042A0000E0D1F1DC7018C0D9D1D9A878987812CBE
:1042B000912C5401E985FA850E171F07B1F1F80119
:1042C000C1908F0180ED8C0D8A3078F50C2C000C9C
:1042D000DD08F0E3CF1AD1080D2C000CEE08FF0822
:1042E0006FEF7FE780E090E06C197D098E099F09F0
:1042F0002AE030E040E050E00E94FD352815390505
:104300004A055B05BCF2AAE0B0E0A50194010E9459
:104310001C364B015C018C0C9D1CAE1CBF1CCACF13
:1043200044244A94542C3201B9CF489CC001499C82
:10433000900D589C900D1124F1019183808389E0A8
:104340002A960FB6F894DEBF0FBECDBFDF91CF9196
:104350001F910F91FF90EF90DF90CF90BF90AF90A3
:104360009F908F907F906F905F904F903F902F9095
:10437000089581E0E5CF82E0E3CF83E0E1CF84E000
:10438000DFCF85E0DDCF86E0DBCF87E0D9CF88E0E7
:10439000D7CF8AE0D5CF8BE0D3CF8CE0D1CF8DE0E3
:1043A000CFCF8EE0CDCF8FE0CBCF80E0C9CF1F93B2
:1043B000CF93DF9310921E0910921D0988EE93E0AF
:1043C000A0E0B0E080931F0990932009A0932109F9
:1043D000B093220927EC36E030931C0920931B0987
:1043E00025EC30E0309328092093270924EC30E0B5
:1043F00030932A092093290920EC30E030932C09CE
:1044000020932B0921EC30E030932E0920932D09C5
:1044100022EC30E03093300920932F0926EC30E075
:1044200030933209209331091092340910923509E2
:1044300010923609109237091092BB091092BA09EE
:104440008093BC099093BD09A093BE09B093BF09A6
:1044500089ED96E09093B9098093B8098091B704EB
:104460008093150B8091B8048093160B8091B9044A
:104470008093170B1091B4041093120BD091B504D4
:10448000D093130BC091B604C093140B10920D0B74
:1044900010920C0B10920F0B10920E0B1092110B2E
:1044A0001092100B50E040E06AE077E08CE09BE077
:1044B0000E94520FEAECFAE081E02FEF3FEF92E02A
:1044C000808311821382128215821482378326839D
:1044D00010861286118683871486958786871786AD
:1044E000108A118A128A76964BE0EC30F40741F775
:1044F00083E78093C90A1093C60AD093C70AC09372
:10450000C80A80E48093CE0988EB99E09093D009A3
:104510008093CF09E5EDF9E0AEECB9E086E990E0F3
:1045200013821482158216821782108611861286D3
:1045300014861386968785873F962AE0E53CF20726
:1045400079F78EEC99E09093C5098093C409109295
:10455000C50A80E02EEC39E018963C932E9317970D
:1045600019968C9319978F5F1F968031A9F7DF9169
:10457000CF911F910895CF93DF93CDB7DEB7C95880
:10458000D1090FB6F894DEBF0FBECDBF789484B5C5
:10459000826084BD84B5816084BD85B5826085BD3F
:1045A00085B5816085BD80916E00816080936E00CD
:1045B00010928100809181008260809381008091BF
:1045C0008100816080938100809180008160809370
:1045D00080008091B10084608093B1008091B00030
:1045E00081608093B00080919100826080939100FF
:1045F0008091910081608093910080919000816012
:10460000809390008091A10082608093A1008091AE
:10461000A10081608093A1008091A00081608093BF
:10462000A00080912101826080932101809121016D
:10463000816080932101809120018160809320011D
:1046400080917A00846080937A0080917A00826001
:1046500080937A0080917A00816080937A008091C3
:104660007A00806880937A001092C100E0912B0953
:10467000F0912C0982E08083E0912709F0912809CC
:104680001082E0912909F0912A098FEC8083109221
:104690003309E0912F09F091300986E08083E091A1
:1046A0002D09F0912E09808180618083E0912D0990
:1046B000F0912E09808188608083E0912D09F0912E
:1046C0002E09808180688083E0912D09F0912E0968
:1046D00080818F7D808360E670E08CE09BE00E94AB
:1046E000AA0E1092AA081092A9081092F808109227
:1046F0001A090E943A058AEC93E09093EF078093A1
:10470000EE078BEC93E09093ED078093EC0782E348
:104710008093BA0084EE9FE09093F1078093F007B6
:1047200080917B00877F80937B0083E480937C0073
:1047300080917A00806480937A0080917A0086FD6F
:10474000FCCF6091780070917900072E000C880BE7
:10475000990B611571058105910511F00E94623474
:104760008EEE92E00E94D80419A288E388A3CE01BD
:1047700080960E94EF0D88E097E00E94EF0D8BED90
:1047800092E00E94FC0D83ED92E00E94D8048BEB36
:1047900092E00E94FC0D88EA92E00E94FC0D61E02C
:1047A0008DE00E94350360E089E00E94350361E0FE
:1047B0008AE00E9435034CE251E061E080E00E9413
:1047C000230D4CE251E061E081E00E94230D4CE2B8
:1047D00051E061E082E00E94230DB6E1AB2EB8E02B
:1047E000BB2E1BEAC12E16E0D12E07EF802E04E06F
:1047F000902E0AEC1AE07724739482E0682ED80198
:104800001E969C911E971B968C911B971E967C92D0
:104810001E971B967C921B971C961C921C971D96AC
:104820006C921D977C9219962D913C911A97232B8F
:1048300041F0981731F012966D917C91C8010E9459
:10484000261867E070E0C8010E942618F401519014
:104850004F01E52CF12CD80111968C9111978823EA
:1048600041F016968D919C9197FD03C060E00E94E7
:104870003503F801F782E6828181882341F061E007
:10488000852D0E94350360E0852D0E94A902F70165
:10489000E15CFC4FE491F0E0EE0FFF1FEB5DFC4F9D
:1048A00085919491D80154969C938E935397F701D8
:1048B000EB57FC4FE4915596EC93559716968D91D6
:1048C0009C9197FDB7C161E00E94350360E0F8015B
:1048D00086810E94A902D80111967C9264E6C801E3
:1048E0000E945707C8010E94F707D60112968D91C2
:1048F0009C91B0E0A0E0F60120803180512C412C49
:10490000281639064A065B0664F4BC01CD0162191B
:104910007309840995090E940610260E371E481E49
:10492000591EA8EEB3E0A20191010E941C36D501E8
:104930006D937D938D939D935D010A5E1F4FB4E04F
:10494000CB0ED11CEBE00C301E0709F058CF0E94B3
:10495000BD034B015C0124EC39E0EC963FAF2EAF78
:10496000EC97EC96AEADBFADEC970D911D91EC962A
:10497000BFAFAEAFEC970115110509F446C0F801C1
:10498000E950FF4F8081811103C0C8010E94880C4B
:10499000F801E051FF4FEE96FFAFEEAFEE97D80172
:1049A0001A96CD90DD90ED90FC901D97C114D10426
:1049B000E104F10409F18C149D04AE04BF0408F471
:1049C0003CC152964D915C91539755965C934E9392
:1049D000549719966C91199717968D919C910E94F6
:1049E0006906F801128613861486158616861786C0
:1049F000108A118A138A128A015F1F4FEE96EEAD5C
:104A0000FFADEE970E171F0751F6EC962EAD3FAD9A
:104A1000EC972E5C394009F0A4CF0E94BD030091B1
:104A2000F2071091F3072091F4073091F507601B0E
:104A3000710B820B930B683C71058105910520F089
:104A400060E08DE00E94A90280919F08882309F40C
:104A5000DDC3C0900C0BD0900D0BC114D10449F0F4
:104A60000091100B1091110B76010115110509F041
:104A70004AC1E090100BF090110BE114F10471F0B9
:104A8000C0900C0BD0900D0B6CE770E0C6010E943B
:104A90002F3A8C010C191D09892B11F40FEF1FEF10
:104AA0001093A7040093A6048FEF9FEF9093A504A3
:104AB0008093A404101611060CF049C0A701B80198
:104AC0006F5F7F4FCE0101960E94870F89819A8187
:104AD000009709F454C10E9489347093A50460932F
:104AE000A404CE0101960E940A0EA80170E060E0C5
:104AF000CE0101960E94870F80910C0B90910D0BB7
:104B0000009709F442C169817A816115710509F440
:104B10003AC140910E0B50910F0B2D813E814217EF
:104B2000530708F430C10E943A3A8D819E819093D8
:104B3000110B8093100B1E821D82CE0101960E94E4
:104B40000A0E8FEF9FEF9093A7048093A604009125
:104B5000100B1091110B78010115110509F02CC1F2
:104B600010923F086AE077E08CE09BE00E947D0FA6
:104B700080913F08813209F0AFC389E39E012F5F26
:104B80003F4F7901D901E82F1D92EA95E9F72FEF00
:104B90003FEF38872F834FEF5FEFBA01498F5A8F6E
:104BA0006B8F7C8F94E098A7F701DE01DA96019075
:104BB0000D928A95E1F720E438E0D9010D900020AC
:104BC000E9F79D01215438402330310508F400C332
:104BD0009091400880914108903539F0492F4B7FE2
:104BE000483419F09A3209F0F3C2863439F082352C
:104BF00029F0843519F08A3209F0EAC2E0914208BE
:104C0000E154E83108F0E4C2F0E0E650FB4F4081A7
:104C1000442309F4DDC29BAF8CAF4DAF2330310587
:104C200009F4ADC2809143088A3309F0A8C264E454
:104C300078E0D7C0F801118251CEF801468457843C
:104C40006088718884149504A604B70409F4D4CE4E
:104C500024883588C501B401641975098609970946
:104C60000E94DB34C258DF4F688379838A839B8339
:104C7000CE57D040C701B601641975098609970956
:104C80000E94DB349B01AC01C258DF4F68817981FF
:104C90008A819B81CE57D0400E9414376B017C01E2
:104CA000D80152966D917C9162197309072E000C00
:104CB000880B990B0E94DD349B01AC01C701B60142
:104CC0000E943C350E9486379B0177FF04C0222753
:104CD0003327261B370B223031050CF48DCEA10172
:104CE000460F571FF801558B448B6185878190854E
:104CF0000E946906D8011E968D929D92AD92BC923B
:104D000051977ACE750157015FEFA51AB50AD70101
:104D10008C91082E000C990B0E94CD34892B91F7B1
:104D2000015011090C0D1D1DF8018081082E000C89
:104D3000990B0E94CD34892B31F00E151F0518F008
:104D400001501109F1CF0F5F1F4FA8014E195F09E4
:104D50005093110B4093100BCE14DF0420F4B701D5
:104D6000C6010E941F3AE0910C0BF0910D0B80914F
:104D7000100B9091110BE80FF91F10827ACE60E0B2
:104D800070E0CB01AACE0E94B53889819A819093B8
:104D90000D0B80930C0B8B819C8190930F0B809358
:104DA0000E0B8D819E819093110B8093100B1A82B4
:104DB00019821C821B82BFCE0F35110518F0FFE54A
:104DC000EF2EF12C60910C0B70910D0BA7018FE36E
:104DD00098E00E944F3AF701E15CF74F1082C2CE93
:104DE000B501FB018081882309F4C9C18B015801F9
:104DF000F8018191882329F08D3319F08C3209F064
:104E000050C09801261B370BD12CC12C8D3369F46F
:104E10008F016F015601D6014D91CD01442319F048
:104E20004C3209F040C0CE1ADF0A2115310581F15C
:104E3000EA967FAF6EAFEA97E8963FAF2EAFE8975E
:104E4000E6E7F0E0EC0FFD1FFA83E983E8E78E2E3A
:104E5000912C8C0E9D1E9C828B8261E777E0C701AE
:104E60000E945A20882309F1AE014D585F4FB601C8
:104E7000C8010E949620882359F091E09EAF8FAF21
:104E8000E5968EAD9FADE59722969FAF8EAF2297A8
:104E9000D5018C918C3209F0A3CFBFEFAB1ABB0ABE
:104EA0009FCF8F01A4CF6C01B5CF6EE877E0C7012B
:104EB0000E945A208823D9F026E0C216D10440F37C
:104EC000BE016D587F4FC8010E946B1F882301F3FC
:104ED00081E023968FAF2397E6968DAD9EADAFAD63
:104EE000E69726968DAF9EAFAFAF2697D1CF63E7FB
:104EF00077E0C7010E945A20882359F081E0279665
:104F00008FAF2797C8010E946B3428968FAF2897E0
:104F1000BFCF61E977E0C7010E945A20882371F072
:104F200081E029968FAF2997C8010E943C202D96D9
:104F30006CAF7DAF8EAF9FAF2D97AACF63E877E0C0
:104F4000C7010E945A20882359F081E02E968FAF26
:104F50002E97C8010E946B342F968FAF2F9798CF52
:104F600066E777E0C7010E945A20882359F081E064
:104F700060968FAF6097C8010E946B3461968FAFC7
:104F8000619786CF67E877E0C7010E945A2088239F
:104F900071F081E062968FAF6297C8010E94112084
:104FA00066966CAF7DAF8EAF9FAF669771CF65E7AA
:104FB00077E0C7010E945A20882359F081E0679664
:104FC0008FAF6797C8010E946B3468968FAF689760
:104FD0005FCF68E777E0C7010E945A208823C1F0BD
:104FE00081E0A8968FAFA897C8010E946B34A9965C
:104FF0008FAFA997CD2809F44BCFD8018C91833777
:1050000019F0893609F044CFAA968FAFAA9740CFFE
:105010006AE777E0C7010E945A20882361F081E0A7
:1050200069968FAF6997C8010E946B346B969FAFEA
:105030008EAF6B972DCF6EE777E0C7010E945A20A5
:10504000882371F081E06C968FAF6C97C8010E9445
:105050003C20A0966CAF7DAF8EAF9FAFA09718CFCE
:1050600061E877E0C7010E945A20882359F081E067
:10507000A1968FAFA197C8010E946B34A2968FAF03
:10508000A29706CF65E877E0C7010E945A208823DF
:1050900071F081E0A3968FAFA397C8010E94112001
:1050A000A7966CAF7DAF8EAF9FAFA797F1CE6AE8A2
:1050B00077E0C7010E945A208823E1F0AE014D58E5
:1050C0005F4FB601C8010E949620882309F4E0CE04
:1050D000813008F4DDCE863028F096EF980F9630B8
:1050E00008F0D6CE91E0AB969FAFAB97AC968FAF62
:1050F000AC97CECE6DE877E0C7010E945A20882396
:10510000E9F0B6E0CB16D10408F4C2CEBE016D586A
:105110007F4FC8010E946B1F882309F4B9CE81E03C
:10512000AD968FAFAD97E6968DAD9EADAFADE697E0
:10513000E0968DAF9EAFAFAFE097AACE60E977E083
:10514000C7010E945A20882309F4A2CEC8010E94F8
:105150003C2041E0E1964FAFE197462F572FBC012D
:10516000473FE9E05E076105710520F046EF59E031
:1051700060E070E0E3965FAF4EAFE39789CE81E0E9
:105180008AAF8BAD883411F08A3211F51CAD1A321A
:1051900009F498C0163409F495C08CAD823541F4F9
:1051A000BE01665C7F4F81E00E9479191A3219F0C6
:1051B0008CAD843531F4BE01665C7F4F82E00E9485
:1051C00079198DAD863021F41A3211F41092A804A9
:1051D0001A8219821C821B821E821D8250E040E0CE
:1051E0006AE077E0CE0101960E94520F10929F086C
:1051F0008FEF9FEF9093A3048093A2049093A10458
:105200008093A004CE0101960E940A0E8091A8040A
:10521000882309F42CC30E94BD03AB01BC01CE015D
:1052200001960E94120E49805A806B807C8026EF86
:1052300037E0C258DF4F39832883CE57D0404EEC39
:1052400053E0EC965FAF4EAFEC978CEB93E0EE96AD
:105250009FAF8EAFEE97312C212C912C812C32E117
:10526000D32E40E9B42ECD57DF4F8882C358D040AB
:10527000C258DF4FA881B981CE57D0404D915D9182
:10528000C258DF4FB983A883CE57D040B1016050D8
:105290007E4F30E020E0C9010197241735070CF05C
:1052A000EFC16E5E7F4FFB017297E080F18002815B
:1052B00013814E145F04600671060CF4E1C12F5F88
:1052C0003F4FE9CFBE01665C7F4F80E00E947919B5
:1052D0001A3209F465CF61CF863459F0823549F02E
:1052E000843539F098EA980F933018F0813409F03A
:1052F0006EC0023011050CF453C0909140089053D9
:1053000090933E08043011050CF44AC020914108E6
:105310002053909142089053EAE02E9F900D112463
:1053200090933D0804301105D9F120914308022ED5
:10533000000C330B205331093093A3042093A204B3
:1053400005301105C1F5863431F098EA980F923096
:1053500010F0813429F460913E0880E00E94BF1172
:1053600080913F08982F977F923521F0883511F072
:10537000813429F460913E0881E00E94BF11809140
:105380003F08843539F097EA980F923018F081344D
:1053900009F01ECF60913E0882E00E94BF1118CF35
:1053A00090913E08913079F621E030E03093A304EB
:1053B0002093A204C8CF20914408022E000C330B86
:1053C000205331093093A1042093A004BCCF83352E
:1053D00009F0FECE023011050CF4FACEE09140083F
:1053E00080ED8E0F80933D08E153E93008F0F0CE58
:1053F000F0E08827E150F64D8F4F0C949836082A3C
:10540000E828E828602A852AAA2AD12AF42A192B12
:1054100010E0812F0E94290960E0812F0E948111F4
:105420001F5F1330B1F746E950E060E080E00E9472
:10543000230D1092940410928A04109298041092F2
:105440008F0410929C0481E080938504C090A40492
:10545000D090A5041C141D040CF0BACE05E814E08D
:1054600051E3852E58E0952E64E9E62E64E0F62E91
:1054700075E2A72E78E0B72ED8011496DC92CE9272
:1054800013970E94BD03F4016193719381939193EB
:105490004F01D7011396DC92CE9212970E94BD0362
:1054A000F50161937193819391935F010B5F1F4F9E
:1054B000F4E0EF0EF11C24E004391207E9F688CE7F
:1054C00034EBC32E34E0D32E42E2E42E48E0F42E37
:1054D00007EB14E0B12CAA24A394D6011D926D0110
:1054E000F701A1927F0160E08B2D0E9481118B2D2D
:1054F0000E9469118B2D0E940A09D8011D928D010D
:10550000B394B3E0BB12E9CF63CE94EBC92E94E021
:10551000D92E22E2E22E28E0F22E07EB14E0B12C85
:10552000AA24A394F601A1926F01D701AD927D0147
:1055300060E08B2D0E9481118B2D0E9469118B2DB3
:105540000E940A09F801A1928F01B394F3E0BF12FF
:10555000E9CF3ECE14EBC12E14E0D12E02E2E02EB4
:1055600008E0F02E07EB14E0B12CAA24A39482E00B
:10557000982ED601AD926D01F701A1927F0160E0F6
:105580008B2D0E9481118B2D0E9469118B2D0E9401
:105590000A09D8019D928D01B394B3E0BB12E9CF03
:1055A00017CEA4EBCA2EA4E0DA2EB2E2EB2EB8E0BE
:1055B000FB2E07EB14E0B12CF60111926F01D7011D
:1055C0001D927D0160E08B2D0E9481118B2D0E9428
:1055D00069118B2D0E940A09F80111928F01B39471
:1055E000F3E0BF12E9CFF4CDE4EBCE2EE4E0DE2E03
:1055F000F2E2EF2EF8E0FF2E07EB14E0B12CAA2424
:10560000A394D601AD926D01F70111927F0160E084
:105610008B2D0E9481118B2D0E9469118B2D0E9470
:105620000A09D801AD928D01B394B3E0BB12E9CF62
:10563000CFCD54EBC52E54E0D52E62E2E62E68E0C5
:10564000F62E07EB14E0B12C9924939472E0A72E68
:10565000F60191926F01D7011D927D0160E08B2DC3
:105660000E9481118B2D0E9469118B2D0E940A09C5
:10567000F801A1928F01B394F3E0BF12E9CFA8CD56
:105680008F3F980709F476C0EE96EEADFFADEE972A
:10569000208131818217930709F46CC09183808344
:1056A000D89EF001D99EF00D1124B89C9001B99CB0
:1056B000300D1124E20FF31FE050FE4FE080F18027
:1056C00002811381EC96AEADBFADEC975196ED9291
:1056D000FD920D931C935497BC016F5F7F4F64172D
:1056E00075070CF0E7C2D69EF001D79EF00D11248D
:1056F000E20FF31FE050FE4F4081518162817381C0
:10570000EC96EEADFFADEC97458B568B678B708FAB
:1057100011A2D89E9001D99E300D1124B89CF001A1
:10572000B99CF00D1124E20FF31FE050FE4F220D43
:10573000331D295F3D4F45815681AA24A394AF9222
:105740001F921F921F921F92A484C384EC96AEAD49
:10575000BFADEC971696EC9002856481CD57DF4F74
:105760008881C358D0400E9454090F900F900F9029
:105770000F900F90EC96EEADFFADEC9783A994A936
:10578000A5A9B6A9481659066A067B0609F450C0B1
:1057900043AA54AA65AA76AAEE96EEADFFADEE979F
:1057A0008081918197FD44C0D89EF001D99EF00D73
:1057B0001124B89C9001B99C300D1124E20FF31F05
:1057C000E050FE4FC584CC2099F12485223041F071
:1057D000213009F4BEC7243009F4BBC7233041F59A
:1057E000D89EA001D99E500D1124B89CF001B99CFF
:1057F000F00D1124E40FF51FE050FE4F218930E039
:10580000AAE0B0E00E945136420D531D425F5D4F49
:105810007B018C01EC96AEADBFADEC9716962C914A
:105820006C2DCD57DF4F8881C358D0400E94E409CA
:10583000BFEF8B1A9B0AEC96EEADFFADEC97F79697
:10584000EC96FFAFEEAFEC97F0E92F0E311CEE9621
:105850002EAD3FADEE972E5F3F4FEE963FAF2EAF92
:10586000EE9730EB231631E0330609F0FCCC45E827
:1058700054E0C258DF4F59834883CE57D04084E963
:1058800094E0CD57DF4F99838883C358D040AEEC66
:10589000B3E0EC96BFAFAEAFEC97EE965FAF4EAF16
:1058A000EE97312C212CEE96AEADBFADEE97139650
:1058B0000D911C910115110549F10E94BD03F101E3
:1058C000EE0FFF1FEE0FFF1FEF5CF74FC080D18080
:1058D000E280F3804B015C018C189D08AE08BF0884
:1058E0007501640128EE33E0D8010E94A036C61687
:1058F000D706E806F90650F060E0822D0E9481117B
:10590000822D0E940A09C1010E94D410EE96AEAD0C
:10591000BFADEE978C91873009F488C408F005C2BA
:10592000833009F4AAC208F0CCC1813009F498C2CE
:10593000823009F49BC2CD57DF4FA881B981C3588B
:10594000D04012960D911C910115110561F10E9434
:10595000BD03F101EE0FFF1FEE0FFF1FEB5DF74FD1
:10596000C080D180E280F3804B015C018C189D08DF
:10597000AE08BF087501640128EE33E0D8010E942B
:10598000A036C616D706E806F90668F0822D0E94F2
:105990006911F101EE0FFF1FE158FB4FAA24AA94F1
:1059A000BA2CB182A082CD57DF4FA881B981C358EC
:1059B000D0408C91843009F49AC608F073C68230C6
:1059C00009F48EC608F091C6813009F479C6FFEF5C
:1059D0002F1A3F0AEE962EAD3FADEE972B5F3F4F4D
:1059E000EE963FAF2EAFEE97CD57DF4F48815981EE
:1059F000C358D0404C5F5F4FCD57DF4F598348832A
:105A0000C358D040EC968EAD9FADEC97C796EC9600
:105A10009FAF8EAFEC9793E02916310409F043CF86
:105A200053E7852E54E0952E10E000E00E94BD0360
:105A3000D401CD90DD90ED90FD904D01C616D706B6
:105A4000E806F90608F0C7C0F801E954FB4F3F012A
:105A50008081882309F4BFC0C258DF4FA881B98173
:105A6000CE57D0408C91843608F4B5C0B7E3B09FD0
:105A7000F001B19FF00D1124E253FC4F80818111A0
:105A8000AAC05801AA0CBB1CAA0CBB1CF501E95406
:105A9000F94F82819381B0E0A0E0C080D180F12CE9
:105AA000E12CC816D906EA06FB0664F4BC01CD0158
:105AB0006C197D098E099F090E940610C60ED71E1B
:105AC000E81EF91E0E94BD031B012C01F40134974E
:105AD000A8EEB3E0A70196010E941C36260E371EE1
